{
  "_format": "hh-sol-artifact-1",
  "contractName": "VendingMachine",
  "sourceName": "contracts/VendingMachine.sol",
  "abi": [
    {
      "inputs": [],
      "stateMutability": "nonpayable",
      "type": "constructor"
    },
    {
      "inputs": [
        {
          "internalType": "uint256",
          "name": "amount",
          "type": "uint256"
        }
      ],
      "name": "purchase",
      "outputs": [],
      "stateMutability": "payable",
      "type": "function"
    },
    {
      "inputs": [
        {
          "internalType": "uint256",
          "name": "amount",
          "type": "uint256"
        }
      ],
      "name": "refill",
      "outputs": [],
      "stateMutability": "nonpayable",
      "type": "function"
    }
  ],
  "bytecode": "0x608060405234801561001057600080fd5b50336000806101000a81548173ffffffffffffffffffffffffffffffffffffffff021916908373ffffffffffffffffffffffffffffffffffffffff1602179055506064600160003073ffffffffffffffffffffffffffffffffffffffff1673ffffffffffffffffffffffffffffffffffffffff168152602001908152602001600020819055506105f9806100a56000396000f3fe6080604052600436106100295760003560e01c8063ca9d07ba1461002e578063efef39a114610057575b600080fd5b34801561003a57600080fd5b506100556004803603810190610050919061031c565b610073565b005b610071600480360381019061006c919061031c565b61015a565b005b60008054906101000a900473ffffffffffffffffffffffffffffffffffffffff1673ffffffffffffffffffffffffffffffffffffffff163373ffffffffffffffffffffffffffffffffffffffff1614610101576040517f08c379a00000000000000000000000000000000000000000000000000000000081526004016100f8906103a6565b60405180910390fd5b80600160003073ffffffffffffffffffffffffffffffffffffffff1673ffffffffffffffffffffffffffffffffffffffff168152602001908152602001600020600082825461015091906103f5565b9250508190555050565b670de0b6b3a76400008161016e9190610429565b3410156101b0576040517f08c379a00000000000000000000000000000000000000000000000000000000081526004016101a7906104dd565b60405180910390fd5b80600160003073ffffffffffffffffffffffffffffffffffffffff1673ffffffffffffffffffffffffffffffffffffffff168152602001908152602001600020541015610232576040517f08c379a00000000000000000000000000000000000000000000000000000000081526004016102299061056f565b60405180910390fd5b80600160003073ffffffffffffffffffffffffffffffffffffffff1673ffffffffffffffffffffffffffffffffffffffff1681526020019081526020016000206000828254610281919061058f565b9250508190555080600160003373ffffffffffffffffffffffffffffffffffffffff1673ffffffffffffffffffffffffffffffffffffffff16815260200190815260200160002060008282546102d791906103f5565b9250508190555050565b600080fd5b6000819050919050565b6102f9816102e6565b811461030457600080fd5b50565b600081359050610316816102f0565b92915050565b600060208284031215610332576103316102e1565b5b600061034084828501610307565b91505092915050565b600082825260208201905092915050565b7f4f6e6c7920746865206f776e65722063616e20726566696c6c2e000000000000600082015250565b6000610390601a83610349565b915061039b8261035a565b602082019050919050565b600060208201905081810360008301526103bf81610383565b9050919050565b7f4e487b7100000000000000000000000000000000000000000000000000000000600052601160045260246000fd5b6000610400826102e6565b915061040b836102e6565b9250828201905080821115610423576104226103c6565b5b92915050565b6000610434826102e6565b915061043f836102e6565b925082820261044d816102e6565b91508282048414831517610464576104636103c6565b5b5092915050565b7f596f75206d75737420706179206174206c65617374203120455448207065722060008201527f63757063616b6500000000000000000000000000000000000000000000000000602082015250565b60006104c7602783610349565b91506104d28261046b565b604082019050919050565b600060208201905081810360008301526104f6816104ba565b9050919050565b7f4e6f7420656e6f7567682063757063616b657320696e2073746f636b20746f2060008201527f636f6d706c657465207468697320707572636861736500000000000000000000602082015250565b6000610559603683610349565b9150610564826104fd565b604082019050919050565b600060208201905081810360008301526105888161054c565b9050919050565b600061059a826102e6565b91506105a5836102e6565b92508282039050818111156105bd576105bc6103c6565b5b9291505056fea2646970667358221220e32734b31cc6387517ac299cc5ac6cd3540503a41568b27f0b867a309ccff77764736f6c63430008130033",
  "linkReferences": {},
  "deployedLinkReferences": {}
}